{
  "_format": "hh3-artifact-1",
  "contractName": "TipJar",
  "sourceName": "contracts/TipJar.sol",
  "abi": [
    {
      "anonymous": false,
      "inputs": [
        {
          "indexed": true,
          "internalType": "address",
          "name": "from",
          "type": "address"
        },
        {
          "indexed": true,
          "internalType": "address",
          "name": "to",
          "type": "address"
        },
        {
          "indexed": false,
          "internalType": "uint256",
          "name": "amount",
          "type": "uint256"
        },
        {
          "indexed": false,
          "internalType": "string",
          "name": "message",
          "type": "string"
        }
      ],
      "name": "TipSent",
      "type": "event"
    },
    {
      "inputs": [
        {
          "internalType": "address payable",
          "name": "streamer",
          "type": "address"
        },
        {
          "internalType": "string",
          "name": "message",
          "type": "string"
        }
      ],
      "name": "sendTip",
      "outputs": [],
      "stateMutability": "payable",
      "type": "function"
    }
  ],
  "bytecode": "0x608060405234801561000f575f80fd5b506102048061001d5f395ff3fe60806040526004361061001d575f3560e01c806321ebf1b714610021575b5f80fd5b61003461002f366004610110565b610036565b005b5f34116100895760405162461bcd60e51b815260206004820152601a60248201527f546970206d7573742062652067726561746572207468616e2030000000000000604482015260640160405180910390fd5b6040516001600160a01b038416903480156108fc02915f818181858888f193505050501580156100bb573d5f803e3d5ffd5b50826001600160a01b0316336001600160a01b03167f47699a4a144a6ecb85d9f1d3f809cbb382de4ad771c46d73422dd419cebec46534858560405161010393929190610199565b60405180910390a3505050565b5f805f60408486031215610122575f80fd5b83356001600160a01b0381168114610138575f80fd5b9250602084013567ffffffffffffffff80821115610154575f80fd5b818601915086601f830112610167575f80fd5b813581811115610175575f80fd5b876020828501011115610186575f80fd5b6020830194508093505050509250925092565b83815260406020820152816040820152818360608301375f818301606090810191909152601f909201601f191601019291505056fea264697066735822122084f6ba4efcfeef85eb32df204f5cf3c159850187e9d14eadaf0ae0199ad5b63964736f6c63430008140033",
  "linkReferences": {},
  "deployedLinkReferences": {},
  "immutableReferences": {},
  "inputSourceName": "project/contracts/TipJar.sol",
  "buildInfoId": "solc-0_8_20-efccc2c967aa229c0afbd470060ca0e988bea150"
}